{
  "contractName": "RekamMedis",
  "abi": [
    {
      "inputs": [],
      "stateMutability": "nonpayable",
      "type": "constructor"
    },
    {
      "inputs": [
        {
          "internalType": "uint256",
          "name": "idCheckup",
          "type": "uint256"
        },
        {
          "internalType": "uint256",
          "name": "nik",
          "type": "uint256"
        },
        {
          "internalType": "uint256",
          "name": "idPerawat",
          "type": "uint256"
        },
        {
          "internalType": "string",
          "name": "diagnosa",
          "type": "string"
        },
        {
          "internalType": "string",
          "name": "subjek",
          "type": "string"
        },
        {
          "internalType": "string",
          "name": "objek",
          "type": "string"
        },
        {
          "internalType": "string",
          "name": "assesmen",
          "type": "string"
        },
        {
          "internalType": "string",
          "name": "planning",
          "type": "string"
        },
        {
          "internalType": "string",
          "name": "intervensi",
          "type": "string"
        },
        {
          "internalType": "string",
          "name": "tanggal",
          "type": "string"
        }
      ],
      "name": "tambahPerawat",
      "outputs": [],
      "stateMutability": "nonpayable",
      "type": "function"
    },
    {
      "inputs": [
        {
          "internalType": "uint256",
          "name": "nik",
          "type": "uint256"
        },
        {
          "internalType": "uint256",
          "name": "idCheckup",
          "type": "uint256"
        },
        {
          "internalType": "uint256",
          "name": "idDokter",
          "type": "uint256"
        },
        {
          "internalType": "string",
          "name": "diagnosa",
          "type": "string"
        },
        {
          "internalType": "string",
          "name": "subjek",
          "type": "string"
        },
        {
          "internalType": "string",
          "name": "objek",
          "type": "string"
        },
        {
          "internalType": "string",
          "name": "assesmen",
          "type": "string"
        },
        {
          "internalType": "string",
          "name": "planning",
          "type": "string"
        },
        {
          "internalType": "string",
          "name": "statusPasien",
          "type": "string"
        },
        {
          "internalType": "string",
          "name": "keterangan",
          "type": "string"
        },
        {
          "internalType": "string",
          "name": "tanggal",
          "type": "string"
        }
      ],
      "name": "tambahMedicalCheckup",
      "outputs": [],
      "stateMutability": "nonpayable",
      "type": "function"
    },
    {
      "inputs": [
        {
          "internalType": "uint256",
          "name": "nik",
          "type": "uint256"
        },
        {
          "internalType": "uint256",
          "name": "idCheckup",
          "type": "uint256"
        },
        {
          "internalType": "uint256",
          "name": "idPerawat",
          "type": "uint256"
        },
        {
          "internalType": "string",
          "name": "diagnosa",
          "type": "string"
        },
        {
          "internalType": "string",
          "name": "intervensi",
          "type": "string"
        },
        {
          "internalType": "string",
          "name": "tanggal",
          "type": "string"
        }
      ],
      "name": "tambahGizi",
      "outputs": [],
      "stateMutability": "nonpayable",
      "type": "function"
    },
    {
      "inputs": [
        {
          "internalType": "uint256",
          "name": "nik",
          "type": "uint256"
        },
        {
          "internalType": "uint256",
          "name": "idCheckup",
          "type": "uint256"
        },
        {
          "internalType": "uint256",
          "name": "idPerawat",
          "type": "uint256"
        },
        {
          "internalType": "string",
          "name": "diagnosa",
          "type": "string"
        },
        {
          "internalType": "string",
          "name": "resepObat",
          "type": "string"
        },
        {
          "internalType": "string",
          "name": "tanggal",
          "type": "string"
        }
      ],
      "name": "tambahFarmasi",
      "outputs": [],
      "stateMutability": "nonpayable",
      "type": "function"
    },
    {
      "inputs": [
        {
          "internalType": "uint256",
          "name": "nik",
          "type": "uint256"
        },
        {
          "internalType": "uint256",
          "name": "idCheckup",
          "type": "uint256"
        },
        {
          "internalType": "uint256",
          "name": "idPerawat",
          "type": "uint256"
        },
        {
          "internalType": "string",
          "name": "diagnosa",
          "type": "string"
        },
        {
          "internalType": "string",
          "name": "jenisPemeriksaan",
          "type": "string"
        },
        {
          "internalType": "string",
          "name": "hasilPemeriksaan",
          "type": "string"
        }
      ],
      "name": "tambahLaboran",
      "outputs": [],
      "stateMutability": "nonpayable",
      "type": "function"
    },
    {
      "inputs": [],
      "name": "jumlahMedicalCheckup",
      "outputs": [
        {
          "internalType": "uint256",
          "name": "",
          "type": "uint256"
        }
      ],
      "stateMutability": "view",
      "type": "function",
      "constant": true
    },
    {
      "inputs": [],
      "name": "jumlahPerawat",
      "outputs": [
        {
          "internalType": "uint256",
          "name": "",
          "type": "uint256"
        }
      ],
      "stateMutability": "view",
      "type": "function",
      "constant": true
    },
    {
      "inputs": [],
      "name": "jumlahGizi",
      "outputs": [
        {
          "internalType": "uint256",
          "name": "",
          "type": "uint256"
        }
      ],
      "stateMutability": "view",
      "type": "function",
      "constant": true
    },
    {
      "inputs": [],
      "name": "jumlahFarmasi",
      "outputs": [
        {
          "internalType": "uint256",
          "name": "",
          "type": "uint256"
        }
      ],
      "stateMutability": "view",
      "type": "function",
      "constant": true
    },
    {
      "inputs": [],
      "name": "jumlahLaboran",
      "outputs": [
        {
          "internalType": "uint256",
          "name": "",
          "type": "uint256"
        }
      ],
      "stateMutability": "view",
      "type": "function",
      "constant": true
    },
    {
      "inputs": [
        {
          "internalType": "uint256",
          "name": "index",
          "type": "uint256"
        }
      ],
      "name": "lihatMedicalCheckout",
      "outputs": [
        {
          "components": [
            {
              "internalType": "uint256",
              "name": "idCheckup",
              "type": "uint256"
            },
            {
              "internalType": "uint256",
              "name": "nik",
              "type": "uint256"
            },
            {
              "internalType": "uint256",
              "name": "idDokter",
              "type": "uint256"
            },
            {
              "internalType": "string",
              "name": "diagnosa",
              "type": "string"
            },
            {
              "internalType": "string",
              "name": "subjek",
              "type": "string"
            },
            {
              "internalType": "string",
              "name": "objek",
              "type": "string"
            },
            {
              "internalType": "string",
              "name": "assesmen",
              "type": "string"
            },
            {
              "internalType": "string",
              "name": "planning",
              "type": "string"
            },
            {
              "internalType": "string",
              "name": "statusPasien",
              "type": "string"
            },
            {
              "internalType": "string",
              "name": "keterangan",
              "type": "string"
            },
            {
              "internalType": "string",
              "name": "tanggal",
              "type": "string"
            }
          ],
          "internalType": "struct RekamMedis.MedicalCheckup",
          "name": "",
          "type": "tuple"
        }
      ],
      "stateMutability": "view",
      "type": "function",
      "constant": true
    },
    {
      "inputs": [
        {
          "internalType": "uint256",
          "name": "index",
          "type": "uint256"
        }
      ],
      "name": "lihatPerawat",
      "outputs": [
        {
          "components": [
            {
              "internalType": "uint256",
              "name": "nik",
              "type": "uint256"
            },
            {
              "internalType": "uint256",
              "name": "idCheckup",
              "type": "uint256"
            },
            {
              "internalType": "uint256",
              "name": "idPerawat",
              "type": "uint256"
            },
            {
              "internalType": "string",
              "name": "diagnosa",
              "type": "string"
            },
            {
              "internalType": "string",
              "name": "subjek",
              "type": "string"
            },
            {
              "internalType": "string",
              "name": "objek",
              "type": "string"
            },
            {
              "internalType": "string",
              "name": "assesmen",
              "type": "string"
            },
            {
              "internalType": "string",
              "name": "planning",
              "type": "string"
            },
            {
              "internalType": "string",
              "name": "intervensi",
              "type": "string"
            },
            {
              "internalType": "string",
              "name": "tanggal",
              "type": "string"
            }
          ],
          "internalType": "struct RekamMedis.Perawat",
          "name": "",
          "type": "tuple"
        }
      ],
      "stateMutability": "view",
      "type": "function",
      "constant": true
    },
    {
      "inputs": [
        {
          "internalType": "uint256",
          "name": "index",
          "type": "uint256"
        }
      ],
      "name": "lihatGizi",
      "outputs": [
        {
          "components": [
            {
              "internalType": "uint256",
              "name": "nik",
              "type": "uint256"
            },
            {
              "internalType": "uint256",
              "name": "idCheckup",
              "type": "uint256"
            },
            {
              "internalType": "uint256",
              "name": "idPerawat",
              "type": "uint256"
            },
            {
              "internalType": "string",
              "name": "diagnosa",
              "type": "string"
            },
            {
              "internalType": "string",
              "name": "intervensi",
              "type": "string"
            },
            {
              "internalType": "string",
              "name": "tanggal",
              "type": "string"
            }
          ],
          "internalType": "struct RekamMedis.Gizi",
          "name": "",
          "type": "tuple"
        }
      ],
      "stateMutability": "view",
      "type": "function",
      "constant": true
    },
    {
      "inputs": [
        {
          "internalType": "uint256",
          "name": "index",
          "type": "uint256"
        }
      ],
      "name": "lihatFarmasi",
      "outputs": [
        {
          "components": [
            {
              "internalType": "uint256",
              "name": "nik",
              "type": "uint256"
            },
            {
              "internalType": "uint256",
              "name": "idCheckup",
              "type": "uint256"
            },
            {
              "internalType": "uint256",
              "name": "idPerawat",
              "type": "uint256"
            },
            {
              "internalType": "string",
              "name": "diagnosa",
              "type": "string"
            },
            {
              "internalType": "string",
              "name": "resepObat",
              "type": "string"
            },
            {
              "internalType": "string",
              "name": "tanggal",
              "type": "string"
            }
          ],
          "internalType": "struct RekamMedis.Farmasi",
          "name": "",
          "type": "tuple"
        }
      ],
      "stateMutability": "view",
      "type": "function",
      "constant": true
    },
    {
      "inputs": [
        {
          "internalType": "uint256",
          "name": "index",
          "type": "uint256"
        }
      ],
      "name": "lihatLaboran",
      "outputs": [
        {
          "components": [
            {
              "internalType": "uint256",
              "name": "nik",
              "type": "uint256"
            },
            {
              "internalType": "uint256",
              "name": "idCheckup",
              "type": "uint256"
            },
            {
              "internalType": "uint256",
              "name": "idPerawat",
              "type": "uint256"
            },
            {
              "internalType": "string",
              "name": "diagnosa",
              "type": "string"
            },
            {
              "internalType": "string",
              "name": "jenisPemeriksaan",
              "type": "string"
            },
            {
              "internalType": "string",
              "name": "hasilPemeriksaan",
              "type": "string"
            }
          ],
          "internalType": "struct RekamMedis.Laboran",
          "name": "",
          "type": "tuple"
        }
      ],
      "stateMutability": "view",
      "type": "function",
      "constant": true
    }
  ],
  "bytecode": "0x608060405234801561001057600080fd5b503361001e5761001e610023565b610039565b634e487b7160e01b600052600160045260246000fd5b611d58806100486000396000f3fe608060405234801561001057600080fd5b50600436106100f55760003560e01c8063838fdb6e11610097578063ccfd4a3b11610066578063ccfd4a3b146101d5578063d53d6275146101dd578063e27c2518146101fd578063f34bd1391461020557600080fd5b8063838fdb6e14610189578063977074621461019c578063aa3c4af0146101af578063b58fadb5146101c257600080fd5b806338150363116100d3578063381503631461013957806338de6749146101595780633fe3f9c91461016e57806349d0adb01461017657600080fd5b8063026e146d146100fa57806321812a24146101115780632980175414610131575b600080fd5b6003545b6040519081526020015b60405180910390f35b61012461011f3660046115de565b610218565b60405161010891906116b3565b6001546100fe565b61014c6101473660046115de565b610482565b60405161010891906116cd565b61016c610167366004611869565b6108c0565b005b6002546100fe565b61016c6101843660046119a3565b610a8a565b6101246101973660046115de565b610bc0565b61016c6101aa3660046119a3565b610c2d565b6101246101bd3660046115de565b610d20565b61016c6101d03660046119a3565b610d8d565b6004546100fe565b6101f06101eb3660046115de565b610e80565b6040516101089190611a47565b6000546100fe565b61016c610213366004611b39565b611357565b6102516040518060c001604052806000815260200160008152602001600081526020016060815260200160608152602001606081525090565b600354821061027b5760405162461bcd60e51b815260040161027290611ca5565b60405180910390fd5b6003828154811061028e5761028e611cd1565b90600052602060002090600602016040518060c00160405290816000820154815260200160018201548152602001600282015481526020016003820180546102d590611ce7565b80601f016020809104026020016040519081016040528092919081815260200182805461030190611ce7565b801561034e5780601f106103235761010080835404028352916020019161034e565b820191906000526020600020905b81548152906001019060200180831161033157829003601f168201915b5050505050815260200160048201805461036790611ce7565b80601f016020809104026020016040519081016040528092919081815260200182805461039390611ce7565b80156103e05780601f106103b5576101008083540402835291602001916103e0565b820191906000526020600020905b8154815290600101906020018083116103c357829003601f168201915b505050505081526020016005820180546103f990611ce7565b80601f016020809104026020016040519081016040528092919081815260200182805461042590611ce7565b80156104725780601f1061044757610100808354040283529160200191610472565b820191906000526020600020905b81548152906001019060200180831161045557829003601f168201915b5050505050815250509050919050565b6104d8604051806101400160405280600081526020016000815260200160008152602001606081526020016060815260200160608152602001606081526020016060815260200160608152602001606081525090565b60015482106104f95760405162461bcd60e51b815260040161027290611ca5565b6001828154811061050c5761050c611cd1565b90600052602060002090600a02016040518061014001604052908160008201548152602001600182015481526020016002820154815260200160038201805461055490611ce7565b80601f016020809104026020016040519081016040528092919081815260200182805461058090611ce7565b80156105cd5780601f106105a2576101008083540402835291602001916105cd565b820191906000526020600020905b8154815290600101906020018083116105b057829003601f168201915b505050505081526020016004820180546105e690611ce7565b80601f016020809104026020016040519081016040528092919081815260200182805461061290611ce7565b801561065f5780601f106106345761010080835404028352916020019161065f565b820191906000526020600020905b81548152906001019060200180831161064257829003601f168201915b5050505050815260200160058201805461067890611ce7565b80601f01602080910402602001604051908101604052809291908181526020018280546106a490611ce7565b80156106f15780601f106106c6576101008083540402835291602001916106f1565b820191906000526020600020905b8154815290600101906020018083116106d457829003601f168201915b5050505050815260200160068201805461070a90611ce7565b80601f016020809104026020016040519081016040528092919081815260200182805461073690611ce7565b80156107835780601f1061075857610100808354040283529160200191610783565b820191906000526020600020905b81548152906001019060200180831161076657829003601f168201915b5050505050815260200160078201805461079c90611ce7565b80601f01602080910402602001604051908101604052809291908181526020018280546107c890611ce7565b80156108155780601f106107ea57610100808354040283529160200191610815565b820191906000526020600020905b8154815290600101906020018083116107f857829003601f168201915b5050505050815260200160088201805461082e90611ce7565b80601f016020809104026020016040519081016040528092919081815260200182805461085a90611ce7565b80156108a75780601f1061087c576101008083540402835291602001916108a7565b820191906000526020600020905b81548152906001019060200180831161088a57829003601f168201915b505050505081526020016009820180546103f990611ce7565b60408051610140810182528a815260208082018d81529282018b8152606083018b8152608084018b905260a084018a905260c0840189905260e08401889052610100840187905261012084018690526001805480820182556000919091528451600a9091027fb10e2d527612073b26eecdfd717e6a320cf44b4afac2b0732d9fcbe2b7fa0cf6810191825595517fb10e2d527612073b26eecdfd717e6a320cf44b4afac2b0732d9fcbe2b7fa0cf787015591517fb10e2d527612073b26eecdfd717e6a320cf44b4afac2b0732d9fcbe2b7fa0cf8860155518051939491936109d1937fb10e2d527612073b26eecdfd717e6a320cf44b4afac2b0732d9fcbe2b7fa0cf9909301929190910190611545565b50608082015180516109ed916004840191602090910190611545565b5060a08201518051610a09916005840191602090910190611545565b5060c08201518051610a25916006840191602090910190611545565b5060e08201518051610a41916007840191602090910190611545565b506101008201518051610a5e916008840191602090910190611545565b506101208201518051610a7b916009840191602090910190611545565b50505050505050505050505050565b6040805160c0810182528781526020808201888152928201878152606083018781526080840187905260a0840186905260048054600181018255600091909152845160069091027f8a35acfbc15ff81a39ae7d344fd709f28e8600b4aa8c65c6b64bfe7fe36bd19b810191825595517f8a35acfbc15ff81a39ae7d344fd709f28e8600b4aa8c65c6b64bfe7fe36bd19c87015591517f8a35acfbc15ff81a39ae7d344fd709f28e8600b4aa8c65c6b64bfe7fe36bd19d86015551805193949193610b7d937f8a35acfbc15ff81a39ae7d344fd709f28e8600b4aa8c65c6b64bfe7fe36bd19e909301929190910190611545565b5060808201518051610b99916004840191602090910190611545565b5060a08201518051610bb5916005840191602090910190611545565b505050505050505050565b610bf96040518060c001604052806000815260200160008152602001600081526020016060815260200160608152602001606081525090565b6002548210610c1a5760405162461bcd60e51b815260040161027290611ca5565b6002828154811061028e5761028e611cd1565b6040805160c0810182528781526020808201888152928201878152606083018781526080840187905260a0840186905260028054600181018255600091909152845160069091027f405787fa12a823e0f2b7631cc41b3ba8828b3321ca811111fa75cd3aa3bb5ace810191825595517f405787fa12a823e0f2b7631cc41b3ba8828b3321ca811111fa75cd3aa3bb5acf87015591517f405787fa12a823e0f2b7631cc41b3ba8828b3321ca811111fa75cd3aa3bb5ad086015551805193949193610b7d937f405787fa12a823e0f2b7631cc41b3ba8828b3321ca811111fa75cd3aa3bb5ad1909301929190910190611545565b610d596040518060c001604052806000815260200160008152602001600081526020016060815260200160608152602001606081525090565b6004548210610d7a5760405162461bcd60e51b815260040161027290611ca5565b6004828154811061028e5761028e611cd1565b6040805160c0810182528781526020808201888152928201878152606083018781526080840187905260a0840186905260038054600181018255600091909152845160069091027fc2575a0e9e593c00f959f8c92f12db2869c3395a3b0502d05e2516446f71f85b810191825595517fc2575a0e9e593c00f959f8c92f12db2869c3395a3b0502d05e2516446f71f85c87015591517fc2575a0e9e593c00f959f8c92f12db2869c3395a3b0502d05e2516446f71f85d86015551805193949193610b7d937fc2575a0e9e593c00f959f8c92f12db2869c3395a3b0502d05e2516446f71f85e909301929190910190611545565b610edd60405180610160016040528060008152602001600081526020016000815260200160608152602001606081526020016060815260200160608152602001606081526020016060815260200160608152602001606081525090565b6000548210610efe5760405162461bcd60e51b815260040161027290611ca5565b60008281548110610f1157610f11611cd1565b90600052602060002090600b020160405180610160016040529081600082015481526020016001820154815260200160028201548152602001600382018054610f5990611ce7565b80601f0160208091040260200160405190810160405280929190818152602001828054610f8590611ce7565b8015610fd25780601f10610fa757610100808354040283529160200191610fd2565b820191906000526020600020905b815481529060010190602001808311610fb557829003601f168201915b50505050508152602001600482018054610feb90611ce7565b80601f016020809104026020016040519081016040528092919081815260200182805461101790611ce7565b80156110645780601f1061103957610100808354040283529160200191611064565b820191906000526020600020905b81548152906001019060200180831161104757829003601f168201915b5050505050815260200160058201805461107d90611ce7565b80601f01602080910402602001604051908101604052809291908181526020018280546110a990611ce7565b80156110f65780601f106110cb576101008083540402835291602001916110f6565b820191906000526020600020905b8154815290600101906020018083116110d957829003601f168201915b5050505050815260200160068201805461110f90611ce7565b80601f016020809104026020016040519081016040528092919081815260200182805461113b90611ce7565b80156111885780601f1061115d57610100808354040283529160200191611188565b820191906000526020600020905b81548152906001019060200180831161116b57829003601f168201915b505050505081526020016007820180546111a190611ce7565b80601f01602080910402602001604051908101604052809291908181526020018280546111cd90611ce7565b801561121a5780601f106111ef5761010080835404028352916020019161121a565b820191906000526020600020905b8154815290600101906020018083116111fd57829003601f168201915b5050505050815260200160088201805461123390611ce7565b80601f016020809104026020016040519081016040528092919081815260200182805461125f90611ce7565b80156112ac5780601f10611281576101008083540402835291602001916112ac565b820191906000526020600020905b81548152906001019060200180831161128f57829003601f168201915b505050505081526020016009820180546112c590611ce7565b80601f01602080910402602001604051908101604052809291908181526020018280546112f190611ce7565b801561133e5780601f106113135761010080835404028352916020019161133e565b820191906000526020600020905b81548152906001019060200180831161132157829003601f168201915b50505050508152602001600a820180546103f990611ce7565b60408051610160810182528b815260208082018e81529282018c8152606083018c8152608084018c905260a084018b905260c084018a905260e08401899052610100840188905261012084018790526101408401869052600080546001810182559080528451600b9091027f290decd9548b62a8d60345a988386fc84ba6bc95484008f6362f93160ef3e563810191825595517f290decd9548b62a8d60345a988386fc84ba6bc95484008f6362f93160ef3e56487015591517f290decd9548b62a8d60345a988386fc84ba6bc95484008f6362f93160ef3e5658601555180519394919361146e937f290decd9548b62a8d60345a988386fc84ba6bc95484008f6362f93160ef3e566909301929190910190611545565b506080820151805161148a916004840191602090910190611545565b5060a082015180516114a6916005840191602090910190611545565b5060c082015180516114c2916006840191602090910190611545565b5060e082015180516114de916007840191602090910190611545565b5061010082015180516114fb916008840191602090910190611545565b506101208201518051611518916009840191602090910190611545565b50610140820151805161153591600a840191602090910190611545565b5050505050505050505050505050565b82805461155190611ce7565b90600052602060002090601f01602090048101928261157357600085556115b9565b82601f1061158c57805160ff19168380011785556115b9565b828001600101855582156115b9579182015b828111156115b957825182559160200191906001019061159e565b506115c59291506115c9565b5090565b5b808211156115c557600081556001016115ca565b6000602082840312156115f057600080fd5b5035919050565b6000815180845260005b8181101561161d57602081850181015186830182015201611601565b8181111561162f576000602083870101525b50601f01601f19169290920160200192915050565b8051825260208101516020830152604081015160408301526000606082015160c0606085015261167760c08501826115f7565b90506080830151848203608086015261169082826115f7565b91505060a083015184820360a08601526116aa82826115f7565b95945050505050565b6020815260006116c66020830184611644565b9392505050565b602081528151602082015260208201516040820152604082015160608201526000606083015161014080608085015261170a6101608501836115f7565b91506080850151601f19808685030160a087015261172884836115f7565b935060a08701519150808685030160c087015261174584836115f7565b935060c08701519150808685030160e087015261176284836115f7565b935060e0870151915061010081878603018188015261178185846115f7565b9450808801519250506101208187860301818801526117a085846115f7565b9088015187820390920184880152935090506117bc83826115f7565b9695505050505050565b634e487b7160e01b600052604160045260246000fd5b600082601f8301126117ed57600080fd5b813567ffffffffffffffff80821115611808576118086117c6565b604051601f8301601f19908116603f01168101908282118183101715611830576118306117c6565b8160405283815286602085880101111561184957600080fd5b836020870160208301376000602085830101528094505050505092915050565b6000806000806000806000806000806101408b8d03121561188957600080fd5b8a35995060208b0135985060408b0135975060608b013567ffffffffffffffff808211156118b657600080fd5b6118c28e838f016117dc565b985060808d01359150808211156118d857600080fd5b6118e48e838f016117dc565b975060a08d01359150808211156118fa57600080fd5b6119068e838f016117dc565b965060c08d013591508082111561191c57600080fd5b6119288e838f016117dc565b955060e08d013591508082111561193e57600080fd5b61194a8e838f016117dc565b94506101008d013591508082111561196157600080fd5b61196d8e838f016117dc565b93506101208d013591508082111561198457600080fd5b506119918d828e016117dc565b9150509295989b9194979a5092959850565b60008060008060008060c087890312156119bc57600080fd5b863595506020870135945060408701359350606087013567ffffffffffffffff808211156119e957600080fd5b6119f58a838b016117dc565b94506080890135915080821115611a0b57600080fd5b611a178a838b016117dc565b935060a0890135915080821115611a2d57600080fd5b50611a3a89828a016117dc565b9150509295509295509295565b6020815281516020820152602082015160408201526040820151606082015260006060830151610160806080850152611a846101808501836115f7565b91506080850151601f19808685030160a0870152611aa284836115f7565b935060a08701519150808685030160c0870152611abf84836115f7565b935060c08701519150808685030160e0870152611adc84836115f7565b935060e08701519150610100818786030181880152611afb85846115f7565b945080880151925050610120818786030181880152611b1a85846115f7565b9450808801519250506101408187860301818801526117a085846115f7565b60008060008060008060008060008060006101608c8e031215611b5b57600080fd5b8b359a5060208c0135995060408c0135985067ffffffffffffffff8060608e01351115611b8757600080fd5b611b978e60608f01358f016117dc565b98508060808e01351115611baa57600080fd5b611bba8e60808f01358f016117dc565b97508060a08e01351115611bcd57600080fd5b611bdd8e60a08f01358f016117dc565b96508060c08e01351115611bf057600080fd5b611c008e60c08f01358f016117dc565b95508060e08e01351115611c1357600080fd5b611c238e60e08f01358f016117dc565b9450806101008e01351115611c3757600080fd5b611c488e6101008f01358f016117dc565b9350806101208e01351115611c5c57600080fd5b611c6d8e6101208f01358f016117dc565b9250806101408e01351115611c8157600080fd5b50611c938d6101408e01358e016117dc565b90509295989b509295989b9093969950565b602080825260129082015271125b99195adcc81d1a59185ac81d985b1a5960721b604082015260600190565b634e487b7160e01b600052603260045260246000fd5b600181811c90821680611cfb57607f821691505b60208210811415611d1c57634e487b7160e01b600052602260045260246000fd5b5091905056fea2646970667358221220f2f7dffcd7cfb6498b007efdf5252666eabd18a96f372800b745fe58dda7c23b64736f6c634300080b0033",
  "immutableReferences": {},
  "source": "// SPDX-License-Identifier: MIT\npragma solidity ^0.8.0;\n\ncontract RekamMedis {\n    struct MedicalCheckup {\n        uint256 idCheckup;\n        uint256 nik;\n        uint256 idDokter;\n        string diagnosa;\n        string subjek;\n        string objek;\n        string assesmen;\n        string planning;\n        string statusPasien;\n        string keterangan;\n        string tanggal;\n    }\n\n    struct Perawat {\n        uint256 nik;\n        uint256 idCheckup;\n        uint256 idPerawat;\n        string diagnosa;\n        string subjek;\n        string objek;\n        string assesmen;\n        string planning;\n        string intervensi;\n        string tanggal;\n    }\n\n    struct Gizi {\n        uint256 nik;\n        uint256 idCheckup;\n        uint256 idPerawat;\n        string diagnosa;\n        string intervensi;\n        string tanggal;\n    }\n\n    struct Farmasi {\n        uint256 nik;\n        uint256 idCheckup;\n        uint256 idPerawat;\n        string diagnosa;\n        string resepObat;\n        string tanggal;\n    }\n\n    struct Laboran {\n        uint256 nik;\n        uint256 idCheckup;\n        uint256 idPerawat;\n        string diagnosa;\n        string jenisPemeriksaan;\n        string hasilPemeriksaan;\n    }\n\n    MedicalCheckup[] private _medicalCheckup;\n    Perawat[] private _perawat;\n    Gizi[] private _gizi;\n    Farmasi[] private _farmasi;\n    Laboran[] private _laboran;\n\n    function tambahPerawat(\n        uint256 idCheckup,\n        uint256 nik,\n        uint256 idPerawat,\n        string memory diagnosa,\n        string memory subjek,\n        string memory objek,\n        string memory assesmen,\n        string memory planning,\n        string memory intervensi,\n        string memory tanggal\n    ) public {\n        _perawat.push(\n            Perawat(\n                nik,\n                idCheckup,\n                idPerawat,\n                diagnosa,\n                subjek,\n                objek,\n                assesmen,\n                planning,\n                intervensi,\n                tanggal\n            )\n        );\n    }\n\n    function tambahMedicalCheckup(\n        uint256 nik,\n        uint256 idCheckup,\n        uint256 idDokter,\n        string memory diagnosa,\n        string memory subjek,\n        string memory objek,\n        string memory assesmen,\n        string memory planning,\n        string memory statusPasien,\n        string memory keterangan,\n        string memory tanggal\n    ) public {\n        _medicalCheckup.push(\n            MedicalCheckup(\n                idCheckup,\n                nik,\n                idDokter,\n                diagnosa,\n                subjek,\n                objek,\n                assesmen,\n                planning,\n                statusPasien,\n                keterangan,\n                tanggal\n            )\n        );\n    }\n\n    function tambahGizi(\n        uint256 nik,\n        uint256 idCheckup,\n        uint256 idPerawat,\n        string memory diagnosa,\n        string memory intervensi,\n        string memory tanggal\n    ) public {\n        _gizi.push(\n            Gizi(nik, idCheckup, idPerawat, diagnosa, intervensi, tanggal)\n        );\n    }\n\n    function tambahFarmasi(\n        uint256 nik,\n        uint256 idCheckup,\n        uint256 idPerawat,\n        string memory diagnosa,\n        string memory resepObat,\n        string memory tanggal\n    ) public {\n        _farmasi.push(\n            Farmasi(nik, idCheckup, idPerawat, diagnosa, resepObat, tanggal)\n        );\n    }\n\n    function tambahLaboran(\n        uint256 nik,\n        uint256 idCheckup,\n        uint256 idPerawat,\n        string memory diagnosa,\n        string memory jenisPemeriksaan,\n        string memory hasilPemeriksaan\n    ) public {\n        _laboran.push(\n            Laboran(\n                nik,\n                idCheckup,\n                idPerawat,\n                diagnosa,\n                jenisPemeriksaan,\n                hasilPemeriksaan\n            )\n        );\n    }\n\n    // Fungsi untuk mendapatkan jumlah data pasien\n    function jumlahMedicalCheckup() public view returns (uint256) {\n        return _medicalCheckup.length;\n    }\n\n    function jumlahPerawat() public view returns (uint256) {\n        return _perawat.length;\n    }\n\n    function jumlahGizi() public view returns (uint256) {\n        return _gizi.length;\n    }\n\n    function jumlahFarmasi() public view returns (uint256) {\n        return _farmasi.length;\n    }\n\n    function jumlahLaboran() public view returns (uint256) {\n        return _laboran.length;\n    }\n\n    // Fungsi untuk mendapatkan data identitas pasien berdasarkan indeks\n    function lihatMedicalCheckout(\n        uint256 index\n    ) public view returns (MedicalCheckup memory) {\n        require(index < _medicalCheckup.length, \"Indeks tidak valid\");\n        return _medicalCheckup[index];\n    }\n\n    function lihatPerawat(uint256 index) public view returns (Perawat memory) {\n        require(index < _perawat.length, \"Indeks tidak valid\");\n        return _perawat[index];\n    }\n\n    function lihatGizi(uint256 index) public view returns (Gizi memory) {\n        require(index < _gizi.length, \"Indeks tidak valid\");\n        return _gizi[index];\n    }\n\n    function lihatFarmasi(uint256 index) public view returns (Farmasi memory) {\n        require(index < _farmasi.length, \"Indeks tidak valid\");\n        return _farmasi[index];\n    }\n\n    function lihatLaboran(uint256 index) public view returns (Laboran memory) {\n        require(index < _laboran.length, \"Indeks tidak valid\");\n        return _laboran[index];\n    }\n\n    constructor() {\n        // Add assert statements to the constructor\n        assert(msg.sender != address(0));\n    }\n}\n",
  "sourcePath": "/Applications/projects/nodejs/blockchain/rs-app/admin/contracts/medical_records.sol",
  "compiler": {
    "name": "solc",
    "version": "0.8.11+commit.d7f03943.Emscripten.clang"
  },
  "schemaVersion": "3.4.14",
  "updatedAt": "2023-08-05T03:06:23.833Z",
  "networkType": "ethereum",
  "devdoc": {
    "kind": "dev",
    "methods": {},
    "version": 1
  },
  "userdoc": {
    "kind": "user",
    "methods": {},
    "version": 1
  }
}