{
  "contractName": "RekamMedis",
  "abi": [
    {
      "inputs": [],
      "stateMutability": "nonpayable",
      "type": "constructor"
    },
    {
      "inputs": [
        {
          "internalType": "uint256",
          "name": "_nik",
          "type": "uint256"
        },
        {
          "internalType": "string",
          "name": "_nama",
          "type": "string"
        },
        {
          "internalType": "string",
          "name": "_alamat",
          "type": "string"
        },
        {
          "internalType": "string",
          "name": "_jenisKelamin",
          "type": "string"
        },
        {
          "internalType": "string",
          "name": "_golonganDarah",
          "type": "string"
        },
        {
          "internalType": "string",
          "name": "_tanggalLahir",
          "type": "string"
        }
      ],
      "name": "daftarPasien",
      "outputs": [],
      "stateMutability": "nonpayable",
      "type": "function"
    },
    {
      "inputs": [
        {
          "internalType": "uint256",
          "name": "_nik",
          "type": "uint256"
        },
        {
          "internalType": "uint256",
          "name": "_tanggalPemeriksaan",
          "type": "uint256"
        },
        {
          "internalType": "string",
          "name": "_diagnosaP",
          "type": "string"
        },
        {
          "internalType": "string",
          "name": "_hasilPemeriksaanP",
          "type": "string"
        }
      ],
      "name": "tambahRiwayatMedis",
      "outputs": [],
      "stateMutability": "nonpayable",
      "type": "function"
    },
    {
      "inputs": [
        {
          "internalType": "uint256",
          "name": "_nik",
          "type": "uint256"
        },
        {
          "internalType": "string",
          "name": "_riwayatPenyakit",
          "type": "string"
        },
        {
          "internalType": "string",
          "name": "_waktuRiwayatPenyakit",
          "type": "string"
        },
        {
          "internalType": "string",
          "name": "_jenisRiwayatPenyakit",
          "type": "string"
        },
        {
          "internalType": "string",
          "name": "_riwayatPenanganan",
          "type": "string"
        },
        {
          "internalType": "string",
          "name": "_waktuRiwayatPenanganan",
          "type": "string"
        },
        {
          "internalType": "string",
          "name": "_tempatRiwayatPenanganan",
          "type": "string"
        },
        {
          "internalType": "string",
          "name": "_metodeRiwayatPenanganan",
          "type": "string"
        },
        {
          "internalType": "string",
          "name": "_dokterRiwayatPenanganan",
          "type": "string"
        },
        {
          "internalType": "string",
          "name": "_riwayatAlergi",
          "type": "string"
        }
      ],
      "name": "tambahHasilAnamnesis",
      "outputs": [],
      "stateMutability": "nonpayable",
      "type": "function"
    },
    {
      "inputs": [
        {
          "internalType": "uint256",
          "name": "_nik",
          "type": "uint256"
        },
        {
          "internalType": "string",
          "name": "_diagnosaUtama",
          "type": "string"
        },
        {
          "internalType": "string",
          "name": "_rencanaPenatalaksanaan",
          "type": "string"
        },
        {
          "internalType": "string",
          "name": "_dokter",
          "type": "string"
        },
        {
          "internalType": "string",
          "name": "_tempat",
          "type": "string"
        },
        {
          "internalType": "string",
          "name": "_intervensiDokter",
          "type": "string"
        }
      ],
      "name": "tambahDiagnosa",
      "outputs": [],
      "stateMutability": "nonpayable",
      "type": "function"
    },
    {
      "inputs": [
        {
          "internalType": "uint256",
          "name": "_nik",
          "type": "uint256"
        },
        {
          "internalType": "string",
          "name": "_subjekAsesmen",
          "type": "string"
        },
        {
          "internalType": "string",
          "name": "_subjekPlanning",
          "type": "string"
        },
        {
          "internalType": "string",
          "name": "_subjekIntervensi",
          "type": "string"
        },
        {
          "internalType": "string",
          "name": "_objekAsesmen",
          "type": "string"
        },
        {
          "internalType": "string",
          "name": "_objekPlanning",
          "type": "string"
        },
        {
          "internalType": "string",
          "name": "_objekIntervensi",
          "type": "string"
        }
      ],
      "name": "tambahIntervensi",
      "outputs": [],
      "stateMutability": "nonpayable",
      "type": "function"
    },
    {
      "inputs": [
        {
          "internalType": "uint256",
          "name": "_nik",
          "type": "uint256"
        },
        {
          "internalType": "uint256",
          "name": "_biayaPemeriksaan",
          "type": "uint256"
        },
        {
          "internalType": "uint256",
          "name": "_biayaObat",
          "type": "uint256"
        },
        {
          "internalType": "uint256",
          "name": "_biayaRawatInap",
          "type": "uint256"
        },
        {
          "internalType": "uint256",
          "name": "_biayaPenanganan",
          "type": "uint256"
        },
        {
          "internalType": "string",
          "name": "_jenisPembayaran",
          "type": "string"
        }
      ],
      "name": "tambahKeuangan",
      "outputs": [],
      "stateMutability": "nonpayable",
      "type": "function"
    },
    {
      "inputs": [
        {
          "internalType": "uint256",
          "name": "_nik",
          "type": "uint256"
        },
        {
          "internalType": "string",
          "name": "_kelainanFisik",
          "type": "string"
        },
        {
          "internalType": "uint256",
          "name": "_tinggiBadan",
          "type": "uint256"
        },
        {
          "internalType": "uint256",
          "name": "_beratBadan",
          "type": "uint256"
        }
      ],
      "name": "tambahHasilPemeriksaan",
      "outputs": [],
      "stateMutability": "nonpayable",
      "type": "function"
    },
    {
      "inputs": [],
      "name": "getJumlahPasien",
      "outputs": [
        {
          "internalType": "uint256",
          "name": "",
          "type": "uint256"
        }
      ],
      "stateMutability": "view",
      "type": "function",
      "constant": true
    },
    {
      "inputs": [
        {
          "internalType": "uint256",
          "name": "index",
          "type": "uint256"
        }
      ],
      "name": "getIdentitasPasien",
      "outputs": [
        {
          "components": [
            {
              "internalType": "uint256",
              "name": "nik",
              "type": "uint256"
            },
            {
              "internalType": "string",
              "name": "nama",
              "type": "string"
            },
            {
              "internalType": "string",
              "name": "alamat",
              "type": "string"
            },
            {
              "internalType": "string",
              "name": "jenisKelamin",
              "type": "string"
            },
            {
              "internalType": "string",
              "name": "golonganDarah",
              "type": "string"
            },
            {
              "internalType": "string",
              "name": "tanggalLahir",
              "type": "string"
            }
          ],
          "internalType": "struct RekamMedis.IdentitasPasien",
          "name": "",
          "type": "tuple"
        }
      ],
      "stateMutability": "view",
      "type": "function",
      "constant": true
    },
    {
      "inputs": [],
      "name": "getJumlahRiwayatMedis",
      "outputs": [
        {
          "internalType": "uint256",
          "name": "",
          "type": "uint256"
        }
      ],
      "stateMutability": "view",
      "type": "function",
      "constant": true
    },
    {
      "inputs": [
        {
          "internalType": "uint256",
          "name": "index",
          "type": "uint256"
        }
      ],
      "name": "getRiwayatMedis",
      "outputs": [
        {
          "components": [
            {
              "internalType": "uint256",
              "name": "nik",
              "type": "uint256"
            },
            {
              "internalType": "uint256",
              "name": "tanggalPemeriksaan",
              "type": "uint256"
            },
            {
              "internalType": "string",
              "name": "diagnosa",
              "type": "string"
            },
            {
              "internalType": "string",
              "name": "hasilPemeriksaan",
              "type": "string"
            }
          ],
          "internalType": "struct RekamMedis.RiwayatMedis",
          "name": "",
          "type": "tuple"
        }
      ],
      "stateMutability": "view",
      "type": "function",
      "constant": true
    },
    {
      "inputs": [],
      "name": "getJumlahHasilAnamnesis",
      "outputs": [
        {
          "internalType": "uint256",
          "name": "",
          "type": "uint256"
        }
      ],
      "stateMutability": "view",
      "type": "function",
      "constant": true
    },
    {
      "inputs": [
        {
          "internalType": "uint256",
          "name": "index",
          "type": "uint256"
        }
      ],
      "name": "getHasilAnamnesis",
      "outputs": [
        {
          "components": [
            {
              "internalType": "uint256",
              "name": "nik",
              "type": "uint256"
            },
            {
              "internalType": "string",
              "name": "riwayatPenyakit",
              "type": "string"
            },
            {
              "internalType": "string",
              "name": "waktuRiwayatPenyakit",
              "type": "string"
            },
            {
              "internalType": "string",
              "name": "jenisRiwayatPenyakit",
              "type": "string"
            },
            {
              "internalType": "string",
              "name": "riwayatPenanganan",
              "type": "string"
            },
            {
              "internalType": "string",
              "name": "waktuRiwayatPenanganan",
              "type": "string"
            },
            {
              "internalType": "string",
              "name": "tempatRiwayatPenanganan",
              "type": "string"
            },
            {
              "internalType": "string",
              "name": "metodeRiwayatPenanganan",
              "type": "string"
            },
            {
              "internalType": "string",
              "name": "dokterRiwayatPenanganan",
              "type": "string"
            },
            {
              "internalType": "string",
              "name": "riwayatAlergi",
              "type": "string"
            }
          ],
          "internalType": "struct RekamMedis.HasilAnamnesis",
          "name": "",
          "type": "tuple"
        }
      ],
      "stateMutability": "view",
      "type": "function",
      "constant": true
    },
    {
      "inputs": [],
      "name": "getJumlahDiagnosa",
      "outputs": [
        {
          "internalType": "uint256",
          "name": "",
          "type": "uint256"
        }
      ],
      "stateMutability": "view",
      "type": "function",
      "constant": true
    },
    {
      "inputs": [
        {
          "internalType": "uint256",
          "name": "index",
          "type": "uint256"
        }
      ],
      "name": "getDiagnosa",
      "outputs": [
        {
          "components": [
            {
              "internalType": "uint256",
              "name": "nik",
              "type": "uint256"
            },
            {
              "internalType": "string",
              "name": "diagnosaUtama",
              "type": "string"
            },
            {
              "internalType": "string",
              "name": "rencanaPenatalaksanaan",
              "type": "string"
            },
            {
              "internalType": "string",
              "name": "dokter",
              "type": "string"
            },
            {
              "internalType": "string",
              "name": "tempat",
              "type": "string"
            },
            {
              "internalType": "string",
              "name": "intervensiDokter",
              "type": "string"
            }
          ],
          "internalType": "struct RekamMedis.Diagnosa",
          "name": "",
          "type": "tuple"
        }
      ],
      "stateMutability": "view",
      "type": "function",
      "constant": true
    },
    {
      "inputs": [],
      "name": "getJumlahIntervensi",
      "outputs": [
        {
          "internalType": "uint256",
          "name": "",
          "type": "uint256"
        }
      ],
      "stateMutability": "view",
      "type": "function",
      "constant": true
    },
    {
      "inputs": [
        {
          "internalType": "uint256",
          "name": "index",
          "type": "uint256"
        }
      ],
      "name": "getIntervensi",
      "outputs": [
        {
          "components": [
            {
              "internalType": "uint256",
              "name": "nik",
              "type": "uint256"
            },
            {
              "internalType": "string",
              "name": "subjekAsesmen",
              "type": "string"
            },
            {
              "internalType": "string",
              "name": "subjekPlanning",
              "type": "string"
            },
            {
              "internalType": "string",
              "name": "subjekIntervensi",
              "type": "string"
            },
            {
              "internalType": "string",
              "name": "objekAsesmen",
              "type": "string"
            },
            {
              "internalType": "string",
              "name": "objekPlanning",
              "type": "string"
            },
            {
              "internalType": "string",
              "name": "objekIntervensi",
              "type": "string"
            }
          ],
          "internalType": "struct RekamMedis.Intervensi",
          "name": "",
          "type": "tuple"
        }
      ],
      "stateMutability": "view",
      "type": "function",
      "constant": true
    },
    {
      "inputs": [],
      "name": "getJumlahKeuangan",
      "outputs": [
        {
          "internalType": "uint256",
          "name": "",
          "type": "uint256"
        }
      ],
      "stateMutability": "view",
      "type": "function",
      "constant": true
    },
    {
      "inputs": [
        {
          "internalType": "uint256",
          "name": "index",
          "type": "uint256"
        }
      ],
      "name": "getKeuangan",
      "outputs": [
        {
          "components": [
            {
              "internalType": "uint256",
              "name": "nik",
              "type": "uint256"
            },
            {
              "internalType": "uint256",
              "name": "biayaPemeriksaan",
              "type": "uint256"
            },
            {
              "internalType": "uint256",
              "name": "biayaObat",
              "type": "uint256"
            },
            {
              "internalType": "uint256",
              "name": "biayaRawatInap",
              "type": "uint256"
            },
            {
              "internalType": "uint256",
              "name": "biayaPenanganan",
              "type": "uint256"
            },
            {
              "internalType": "string",
              "name": "jenisPembayaran",
              "type": "string"
            }
          ],
          "internalType": "struct RekamMedis.Keuangan",
          "name": "",
          "type": "tuple"
        }
      ],
      "stateMutability": "view",
      "type": "function",
      "constant": true
    },
    {
      "inputs": [],
      "name": "getJumlahHasilPemeriksaan",
      "outputs": [
        {
          "internalType": "uint256",
          "name": "",
          "type": "uint256"
        }
      ],
      "stateMutability": "view",
      "type": "function",
      "constant": true
    },
    {
      "inputs": [
        {
          "internalType": "uint256",
          "name": "index",
          "type": "uint256"
        }
      ],
      "name": "getHasilPemeriksaan",
      "outputs": [
        {
          "components": [
            {
              "internalType": "uint256",
              "name": "nik",
              "type": "uint256"
            },
            {
              "internalType": "string",
              "name": "kelainanFisik",
              "type": "string"
            },
            {
              "internalType": "uint256",
              "name": "tinggiBadan",
              "type": "uint256"
            },
            {
              "internalType": "uint256",
              "name": "beratBadan",
              "type": "uint256"
            }
          ],
          "internalType": "struct RekamMedis.HasilPemeriksaan",
          "name": "",
          "type": "tuple"
        }
      ],
      "stateMutability": "view",
      "type": "function",
      "constant": true
    }
  ],
  "bytecode": "0x608060405234801561001057600080fd5b503361001e5761001e610023565b610039565b634e487b7160e01b600052600160045260246000fd5b61248e806100486000396000f3fe608060405234801561001057600080fd5b50600436106101375760003560e01c80637ee1fbc1116100b8578063da2a3f6d1161007c578063da2a3f6d14610274578063dfaf49be14610287578063f8d87bfc1461029a578063f9271a9c146102a2578063faa64030146102b5578063ff02805d146102bd57600080fd5b80637ee1fbc11461021e578063b9d4612314610226578063bce602d214610246578063bf110e5914610259578063c5ea694c1461026157600080fd5b80637529777a116100ff5780637529777a146101b0578063772bd4d0146101c35780637769c5b1146101d657806379fee290146101f65780637c0f0de7146101fe57600080fd5b8063114b67f01461013c5780631c68e41d146101535780632b2b62851461016857806331dba667146101885780633e8c139714610190575b600080fd5b6006545b6040519081526020015b60405180910390f35b610166610161366004611b94565b6102dd565b005b61017b610176366004611c94565b610424565b60405161014a9190611d89565b600554610140565b6101a361019e366004611c94565b61079e565b60405161014a9190611da3565b6101666101be366004611e5d565b610b1f565b6101666101d1366004611ec9565b610c68565b6101e96101e4366004611c94565b610d80565b60405161014a9190611f96565b600354610140565b61021161020c366004611c94565b610eaf565b60405161014a9190611fdc565b600154610140565b610239610234366004611c94565b610fdd565b60405161014a9190612029565b610166610254366004611ec9565b6110a5565b600254610140565b61017b61026f366004611c94565b61114a565b61016661028236600461207e565b6111b7565b6101666102953660046121ee565b61136f565b600454610140565b6101666102b0366004612265565b611453565b600054610140565b6102d06102cb366004611c94565b61150a565b60405161014a91906122bc565b6040805160e0810182528881526020808201898152928201889052606082018790526080820186905260a0820185905260c0820184905260048054600181018255600091909152825160079091027f8a35acfbc15ff81a39ae7d344fd709f28e8600b4aa8c65c6b64bfe7fe36bd19b8101918255935180519394919361038c937f8a35acfbc15ff81a39ae7d344fd709f28e8600b4aa8c65c6b64bfe7fe36bd19c909301929190910190611a58565b50604082015180516103a8916002840191602090910190611a58565b50606082015180516103c4916003840191602090910190611a58565b50608082015180516103e0916004840191602090910190611a58565b5060a082015180516103fc916005840191602090910190611a58565b5060c08201518051610418916006840191602090910190611a58565b50505050505050505050565b61045d6040518060c001604052806000815260200160608152602001606081526020016060815260200160608152602001606081525090565b60035482106104875760405162461bcd60e51b815260040161047e906123db565b60405180910390fd5b6003828154811061049a5761049a612407565b90600052602060002090600602016040518060c0016040529081600082015481526020016001820180546104cd9061241d565b80601f01602080910402602001604051908101604052809291908181526020018280546104f99061241d565b80156105465780601f1061051b57610100808354040283529160200191610546565b820191906000526020600020905b81548152906001019060200180831161052957829003601f168201915b5050505050815260200160028201805461055f9061241d565b80601f016020809104026020016040519081016040528092919081815260200182805461058b9061241d565b80156105d85780601f106105ad576101008083540402835291602001916105d8565b820191906000526020600020905b8154815290600101906020018083116105bb57829003601f168201915b505050505081526020016003820180546105f19061241d565b80601f016020809104026020016040519081016040528092919081815260200182805461061d9061241d565b801561066a5780601f1061063f5761010080835404028352916020019161066a565b820191906000526020600020905b81548152906001019060200180831161064d57829003601f168201915b505050505081526020016004820180546106839061241d565b80601f01602080910402602001604051908101604052809291908181526020018280546106af9061241d565b80156106fc5780601f106106d1576101008083540402835291602001916106fc565b820191906000526020600020905b8154815290600101906020018083116106df57829003601f168201915b505050505081526020016005820180546107159061241d565b80601f01602080910402602001604051908101604052809291908181526020018280546107419061241d565b801561078e5780601f106107635761010080835404028352916020019161078e565b820191906000526020600020905b81548152906001019060200180831161077157829003601f168201915b5050505050815250509050919050565b6107de6040518060e00160405280600081526020016060815260200160608152602001606081526020016060815260200160608152602001606081525090565b60045482106107ff5760405162461bcd60e51b815260040161047e906123db565b6004828154811061081257610812612407565b90600052602060002090600702016040518060e0016040529081600082015481526020016001820180546108459061241d565b80601f01602080910402602001604051908101604052809291908181526020018280546108719061241d565b80156108be5780601f10610893576101008083540402835291602001916108be565b820191906000526020600020905b8154815290600101906020018083116108a157829003601f168201915b505050505081526020016002820180546108d79061241d565b80601f01602080910402602001604051908101604052809291908181526020018280546109039061241d565b80156109505780601f1061092557610100808354040283529160200191610950565b820191906000526020600020905b81548152906001019060200180831161093357829003601f168201915b505050505081526020016003820180546109699061241d565b80601f01602080910402602001604051908101604052809291908181526020018280546109959061241d565b80156109e25780601f106109b7576101008083540402835291602001916109e2565b820191906000526020600020905b8154815290600101906020018083116109c557829003601f168201915b505050505081526020016004820180546109fb9061241d565b80601f0160208091040260200160405190810160405280929190818152602001828054610a279061241d565b8015610a745780601f10610a4957610100808354040283529160200191610a74565b820191906000526020600020905b815481529060010190602001808311610a5757829003601f168201915b50505050508152602001600582018054610a8d9061241d565b80601f0160208091040260200160405190810160405280929190818152602001828054610ab99061241d565b8015610b065780601f10610adb57610100808354040283529160200191610b06565b820191906000526020600020905b815481529060010190602001808311610ae957829003601f168201915b505050505081526020016006820180546107159061241d565b6040805160c0810182528781526020808201888152928201878152606083018781526080840187815260a0850187815260058054600181018255600091909152865160069091027f036b6384b5eca791c62761152d0c79bb0604c104a5fb6f4eb0703f3154bb3db0810191825597517f036b6384b5eca791c62761152d0c79bb0604c104a5fb6f4eb0703f3154bb3db189015593517f036b6384b5eca791c62761152d0c79bb0604c104a5fb6f4eb0703f3154bb3db288015591517f036b6384b5eca791c62761152d0c79bb0604c104a5fb6f4eb0703f3154bb3db3870155517f036b6384b5eca791c62761152d0c79bb0604c104a5fb6f4eb0703f3154bb3db486015551805193949193610c5d937f036b6384b5eca791c62761152d0c79bb0604c104a5fb6f4eb0703f3154bb3db5909301929190910190611a58565b505050505050505050565b6040805160c0810182528781526020808201888152928201879052606082018690526080820185905260a0820184905260038054600181018255600091909152825160069091027fc2575a0e9e593c00f959f8c92f12db2869c3395a3b0502d05e2516446f71f85b81019182559351805193949193610d10937fc2575a0e9e593c00f959f8c92f12db2869c3395a3b0502d05e2516446f71f85c909301929190910190611a58565b5060408201518051610d2c916002840191602090910190611a58565b5060608201518051610d48916003840191602090910190611a58565b5060808201518051610d64916004840191602090910190611a58565b5060a08201518051610c5d916005840191602090910190611a58565b610dab6040518060800160405280600081526020016060815260200160008152602001600081525090565b6006548210610dcc5760405162461bcd60e51b815260040161047e906123db565b60068281548110610ddf57610ddf612407565b906000526020600020906004020160405180608001604052908160008201548152602001600182018054610e129061241d565b80601f0160208091040260200160405190810160405280929190818152602001828054610e3e9061241d565b8015610e8b5780601f10610e6057610100808354040283529160200191610e8b565b820191906000526020600020905b815481529060010190602001808311610e6e57829003601f168201915b50505050508152602001600282015481526020016003820154815250509050919050565b610eda6040518060800160405280600081526020016000815260200160608152602001606081525090565b6001548210610efb5760405162461bcd60e51b815260040161047e906123db565b60018281548110610f0e57610f0e612407565b90600052602060002090600402016040518060800160405290816000820154815260200160018201548152602001600282018054610f4b9061241d565b80601f0160208091040260200160405190810160405280929190818152602001828054610f779061241d565b8015610fc45780601f10610f9957610100808354040283529160200191610fc4565b820191906000526020600020905b815481529060010190602001808311610fa757829003601f168201915b505050505081526020016003820180546107159061241d565b6110166040518060c001604052806000815260200160008152602001600081526020016000815260200160008152602001606081525090565b60055482106110375760405162461bcd60e51b815260040161047e906123db565b6005828154811061104a5761104a612407565b90600052602060002090600602016040518060c001604052908160008201548152602001600182015481526020016002820154815260200160038201548152602001600482015481526020016005820180546107159061241d565b6040805160c0810182528781526020808201888152928201879052606082018690526080820185905260a0820184905260008054600181018255908052825160069091027f290decd9548b62a8d60345a988386fc84ba6bc95484008f6362f93160ef3e56381019182559351805193949193610d10937f290decd9548b62a8d60345a988386fc84ba6bc95484008f6362f93160ef3e564909301929190910190611a58565b6111836040518060c001604052806000815260200160608152602001606081526020016060815260200160608152602001606081525090565b60005482106111a45760405162461bcd60e51b815260040161047e906123db565b6000828154811061049a5761049a612407565b60408051610140810182528b815260208082018c81529282018b9052606082018a90526080820189905260a0820188905260c0820187905260e0820186905261010082018590526101208201849052600280546001810182556000919091528251600a9091027f405787fa12a823e0f2b7631cc41b3ba8828b3321ca811111fa75cd3aa3bb5ace8101918255935180519394919361127e937f405787fa12a823e0f2b7631cc41b3ba8828b3321ca811111fa75cd3aa3bb5acf909301929190910190611a58565b506040820151805161129a916002840191602090910190611a58565b50606082015180516112b6916003840191602090910190611a58565b50608082015180516112d2916004840191602090910190611a58565b5060a082015180516112ee916005840191602090910190611a58565b5060c0820151805161130a916006840191602090910190611a58565b5060e08201518051611326916007840191602090910190611a58565b506101008201518051611343916008840191602090910190611a58565b506101208201518051611360916009840191602090910190611a58565b50505050505050505050505050565b60408051608081018252858152602080820186815292820185815260608301859052600180548082018255600091909152835160049091027fb10e2d527612073b26eecdfd717e6a320cf44b4afac2b0732d9fcbe2b7fa0cf6810191825594517fb10e2d527612073b26eecdfd717e6a320cf44b4afac2b0732d9fcbe2b7fa0cf7860155905180519394919361142e937fb10e2d527612073b26eecdfd717e6a320cf44b4afac2b0732d9fcbe2b7fa0cf8909301929190910190611a58565b506060820151805161144a916003840191602090910190611a58565b50505050505050565b6040805160808101825285815260208082018681529282018590526060820184905260068054600181018255600091909152825160049091027ff652222313e28459528d920b65115c16c04f3efc82aaedc97be59f3f377c0d3f810191825593518051939491936114ed937ff652222313e28459528d920b65115c16c04f3efc82aaedc97be59f3f377c0d40909301929190910190611a58565b506040820151816002015560608201518160030155505050505050565b611560604051806101400160405280600081526020016060815260200160608152602001606081526020016060815260200160608152602001606081526020016060815260200160608152602001606081525090565b60025482106115815760405162461bcd60e51b815260040161047e906123db565b6002828154811061159457611594612407565b90600052602060002090600a020160405180610140016040529081600082015481526020016001820180546115c89061241d565b80601f01602080910402602001604051908101604052809291908181526020018280546115f49061241d565b80156116415780601f1061161657610100808354040283529160200191611641565b820191906000526020600020905b81548152906001019060200180831161162457829003601f168201915b5050505050815260200160028201805461165a9061241d565b80601f01602080910402602001604051908101604052809291908181526020018280546116869061241d565b80156116d35780601f106116a8576101008083540402835291602001916116d3565b820191906000526020600020905b8154815290600101906020018083116116b657829003601f168201915b505050505081526020016003820180546116ec9061241d565b80601f01602080910402602001604051908101604052809291908181526020018280546117189061241d565b80156117655780601f1061173a57610100808354040283529160200191611765565b820191906000526020600020905b81548152906001019060200180831161174857829003601f168201915b5050505050815260200160048201805461177e9061241d565b80601f01602080910402602001604051908101604052809291908181526020018280546117aa9061241d565b80156117f75780601f106117cc576101008083540402835291602001916117f7565b820191906000526020600020905b8154815290600101906020018083116117da57829003601f168201915b505050505081526020016005820180546118109061241d565b80601f016020809104026020016040519081016040528092919081815260200182805461183c9061241d565b80156118895780601f1061185e57610100808354040283529160200191611889565b820191906000526020600020905b81548152906001019060200180831161186c57829003601f168201915b505050505081526020016006820180546118a29061241d565b80601f01602080910402602001604051908101604052809291908181526020018280546118ce9061241d565b801561191b5780601f106118f05761010080835404028352916020019161191b565b820191906000526020600020905b8154815290600101906020018083116118fe57829003601f168201915b505050505081526020016007820180546119349061241d565b80601f01602080910402602001604051908101604052809291908181526020018280546119609061241d565b80156119ad5780601f10611982576101008083540402835291602001916119ad565b820191906000526020600020905b81548152906001019060200180831161199057829003601f168201915b505050505081526020016008820180546119c69061241d565b80601f01602080910402602001604051908101604052809291908181526020018280546119f29061241d565b8015611a3f5780601f10611a1457610100808354040283529160200191611a3f565b820191906000526020600020905b815481529060010190602001808311611a2257829003601f168201915b505050505081526020016009820180546107159061241d565b828054611a649061241d565b90600052602060002090601f016020900481019282611a865760008555611acc565b82601f10611a9f57805160ff1916838001178555611acc565b82800160010185558215611acc579182015b82811115611acc578251825591602001919060010190611ab1565b50611ad8929150611adc565b5090565b5b80821115611ad85760008155600101611add565b634e487b7160e01b600052604160045260246000fd5b600082601f830112611b1857600080fd5b813567ffffffffffffffff80821115611b3357611b33611af1565b604051601f8301601f19908116603f01168101908282118183101715611b5b57611b5b611af1565b81604052838152866020858801011115611b7457600080fd5b836020870160208301376000602085830101528094505050505092915050565b600080600080600080600060e0888a031215611baf57600080fd5b87359650602088013567ffffffffffffffff80821115611bce57600080fd5b611bda8b838c01611b07565b975060408a0135915080821115611bf057600080fd5b611bfc8b838c01611b07565b965060608a0135915080821115611c1257600080fd5b611c1e8b838c01611b07565b955060808a0135915080821115611c3457600080fd5b611c408b838c01611b07565b945060a08a0135915080821115611c5657600080fd5b611c628b838c01611b07565b935060c08a0135915080821115611c7857600080fd5b50611c858a828b01611b07565b91505092959891949750929550565b600060208284031215611ca657600080fd5b5035919050565b6000815180845260005b81811015611cd357602081850181015186830182015201611cb7565b81811115611ce5576000602083870101525b50601f01601f19169290920160200192915050565b805182526000602082015160c06020850152611d1960c0850182611cad565b905060408301518482036040860152611d328282611cad565b91505060608301518482036060860152611d4c8282611cad565b91505060808301518482036080860152611d668282611cad565b91505060a083015184820360a0860152611d808282611cad565b95945050505050565b602081526000611d9c6020830184611cfa565b9392505050565b60208152815160208201526000602083015160e06040840152611dca610100840182611cad565b90506040840151601f1980858403016060860152611de88383611cad565b92506060860151915080858403016080860152611e058383611cad565b925060808601519150808584030160a0860152611e228383611cad565b925060a08601519150808584030160c0860152611e3f8383611cad565b925060c08601519150808584030160e086015250611d808282611cad565b60008060008060008060c08789031215611e7657600080fd5b863595506020870135945060408701359350606087013592506080870135915060a087013567ffffffffffffffff811115611eb057600080fd5b611ebc89828a01611b07565b9150509295509295509295565b60008060008060008060c08789031215611ee257600080fd5b86359550602087013567ffffffffffffffff80821115611f0157600080fd5b611f0d8a838b01611b07565b96506040890135915080821115611f2357600080fd5b611f2f8a838b01611b07565b95506060890135915080821115611f4557600080fd5b611f518a838b01611b07565b94506080890135915080821115611f6757600080fd5b611f738a838b01611b07565b935060a0890135915080821115611f8957600080fd5b50611ebc89828a01611b07565b60208152815160208201526000602083015160806040840152611fbc60a0840182611cad565b905060408401516060840152606084015160808401528091505092915050565b602081528151602082015260208201516040820152600060408301516080606084015261200c60a0840182611cad565b90506060840151601f19848303016080850152611d808282611cad565b6020815281516020820152602082015160408201526040820151606082015260608201516080820152608082015160a0820152600060a083015160c08084015261207660e0840182611cad565b949350505050565b6000806000806000806000806000806101408b8d03121561209e57600080fd5b8a35995060208b013567ffffffffffffffff808211156120bd57600080fd5b6120c98e838f01611b07565b9a5060408d01359150808211156120df57600080fd5b6120eb8e838f01611b07565b995060608d013591508082111561210157600080fd5b61210d8e838f01611b07565b985060808d013591508082111561212357600080fd5b61212f8e838f01611b07565b975060a08d013591508082111561214557600080fd5b6121518e838f01611b07565b965060c08d013591508082111561216757600080fd5b6121738e838f01611b07565b955060e08d013591508082111561218957600080fd5b6121958e838f01611b07565b94506101008d01359150808211156121ac57600080fd5b6121b88e838f01611b07565b93506101208d01359150808211156121cf57600080fd5b506121dc8d828e01611b07565b9150509295989b9194979a5092959850565b6000806000806080858703121561220457600080fd5b8435935060208501359250604085013567ffffffffffffffff8082111561222a57600080fd5b61223688838901611b07565b9350606087013591508082111561224c57600080fd5b5061225987828801611b07565b91505092959194509250565b6000806000806080858703121561227b57600080fd5b84359350602085013567ffffffffffffffff81111561229957600080fd5b6122a587828801611b07565b949794965050505060408301359260600135919050565b6020815281516020820152600060208301516101408060408501526122e5610160850183611cad565b91506040850151601f19808685030160608701526123038483611cad565b935060608701519150808685030160808701526123208483611cad565b935060808701519150808685030160a087015261233d8483611cad565b935060a08701519150808685030160c087015261235a8483611cad565b935060c08701519150808685030160e08701526123778483611cad565b935060e087015191506101008187860301818801526123968584611cad565b9450808801519250506101208187860301818801526123b58584611cad565b9088015187820390920184880152935090506123d18382611cad565b9695505050505050565b602080825260129082015271125b99195adcc81d1a59185ac81d985b1a5960721b604082015260600190565b634e487b7160e01b600052603260045260246000fd5b600181811c9082168061243157607f821691505b6020821081141561245257634e487b7160e01b600052602260045260246000fd5b5091905056fea264697066735822122075c552228a0002f4c87e2cfa6b214cb1dc518d36520093c1439d52fe942eb7b764736f6c634300080b0033",
  "immutableReferences": {},
  "source": "// SPDX-License-Identifier: MIT\npragma solidity ^0.8.0;\n\ncontract RekamMedis {\n    struct IdentitasPasien {\n        uint256 nik;\n        string nama;\n        string alamat;\n        string jenisKelamin;\n        string golonganDarah;\n        string tanggalLahir;\n        // tambahkan atribut lain sesuai kebutuhan\n    }\n\n    struct RiwayatMedis {\n        uint256 nik;\n        uint256 tanggalPemeriksaan;\n        string diagnosa;\n        string hasilPemeriksaan;\n        // tambahkan atribut lain sesuai kebutuhan\n    }\n\n    struct HasilAnamnesis {\n        uint256 nik;\n        string riwayatPenyakit;\n        string waktuRiwayatPenyakit;\n        string jenisRiwayatPenyakit;\n        string riwayatPenanganan;\n        string waktuRiwayatPenanganan;\n        string tempatRiwayatPenanganan;\n        string metodeRiwayatPenanganan;\n        string dokterRiwayatPenanganan;\n        string riwayatAlergi;\n    }\n\n    struct Diagnosa {\n        uint256 nik;\n        string diagnosaUtama;\n        string rencanaPenatalaksanaan;\n        string dokter;\n        string tempat;\n        string intervensiDokter;\n    }\n\n    struct Intervensi {\n        uint256 nik;\n        string subjekAsesmen;\n        string subjekPlanning;\n        string subjekIntervensi;\n        string objekAsesmen;\n        string objekPlanning;\n        string objekIntervensi;\n    }\n\n    struct Keuangan {\n        uint256 nik;\n        uint256 biayaPemeriksaan;\n        uint256 biayaObat;\n        uint256 biayaRawatInap;\n        uint256 biayaPenanganan;\n        string jenisPembayaran;\n    }\n\n    struct HasilPemeriksaan {\n        uint256 nik;\n        string kelainanFisik;\n        uint256 tinggiBadan;\n        uint256 beratBadan;\n    }\n\n    IdentitasPasien[] private _identitasPasien;\n    RiwayatMedis[] private _riwayatMedis;\n    HasilAnamnesis[] private _hasilAnamnesis;\n    Diagnosa[] private _diagnosa;\n    Intervensi[] private _intervensi;\n    Keuangan[] private _keuangan;\n    HasilPemeriksaan[] private _hasilPemeriksaan;\n\n    // Fungsi untuk mendaftarkan data pasien\n    function daftarPasien(\n        uint256 _nik,\n        string memory _nama,\n        string memory _alamat,\n        string memory _jenisKelamin,\n        string memory _golonganDarah,\n        string memory _tanggalLahir\n    ) public {\n        _identitasPasien.push(\n            IdentitasPasien(\n                _nik,\n                _nama,\n                _alamat,\n                _jenisKelamin,\n                _golonganDarah,\n                _tanggalLahir\n            )\n        );\n    }\n\n    // Fungsi untuk menambahkan riwayat medis pasien\n    function tambahRiwayatMedis(\n        uint256 _nik,\n        uint256 _tanggalPemeriksaan,\n        string memory _diagnosaP,\n        string memory _hasilPemeriksaanP\n    ) public {\n        _riwayatMedis.push(\n            RiwayatMedis(_nik, _tanggalPemeriksaan, _diagnosaP, _hasilPemeriksaanP)\n        );\n    }\n\n    // Fungsi untuk menambahkan hasil anamnesis pasien\n    function tambahHasilAnamnesis(\n        uint256 _nik,\n        string memory _riwayatPenyakit,\n        string memory _waktuRiwayatPenyakit,\n        string memory _jenisRiwayatPenyakit,\n        string memory _riwayatPenanganan,\n        string memory _waktuRiwayatPenanganan,\n        string memory _tempatRiwayatPenanganan,\n        string memory _metodeRiwayatPenanganan,\n        string memory _dokterRiwayatPenanganan,\n        string memory _riwayatAlergi\n    ) public {\n        _hasilAnamnesis.push(\n            HasilAnamnesis(\n                _nik,\n                _riwayatPenyakit,\n                _waktuRiwayatPenyakit,\n                _jenisRiwayatPenyakit,\n                _riwayatPenanganan,\n                _waktuRiwayatPenanganan,\n                _tempatRiwayatPenanganan,\n                _metodeRiwayatPenanganan,\n                _dokterRiwayatPenanganan,\n                _riwayatAlergi\n            )\n        );\n    }\n\n    // Fungsi untuk menambahkan diagnosa pasien\n    function tambahDiagnosa(\n        uint256 _nik,\n        string memory _diagnosaUtama,\n        string memory _rencanaPenatalaksanaan,\n        string memory _dokter,\n        string memory _tempat,\n        string memory _intervensiDokter\n    ) public {\n        _diagnosa.push(\n            Diagnosa(\n                _nik,\n                _diagnosaUtama,\n                _rencanaPenatalaksanaan,\n                _dokter,\n                _tempat,\n                _intervensiDokter\n            )\n        );\n    }\n\n    // Fungsi untuk menambahkan intervensi pasien\n    function tambahIntervensi(\n        uint256 _nik,\n        string memory _subjekAsesmen,\n        string memory _subjekPlanning,\n        string memory _subjekIntervensi,\n        string memory _objekAsesmen,\n        string memory _objekPlanning,\n        string memory _objekIntervensi\n    ) public {\n        _intervensi.push(\n            Intervensi(\n                _nik,\n                _subjekAsesmen,\n                _subjekPlanning,\n                _subjekIntervensi,\n                _objekAsesmen,\n                _objekPlanning,\n                _objekIntervensi\n            )\n        );\n    }\n\n    // Fungsi untuk menambahkan data keuangan pasien\n    function tambahKeuangan(\n        uint256 _nik,\n        uint256 _biayaPemeriksaan,\n        uint256 _biayaObat,\n        uint256 _biayaRawatInap,\n        uint256 _biayaPenanganan,\n        string memory _jenisPembayaran\n    ) public {\n        _keuangan.push(\n            Keuangan(\n                _nik,\n                _biayaPemeriksaan,\n                _biayaObat,\n                _biayaRawatInap,\n                _biayaPenanganan,\n                _jenisPembayaran\n            )\n        );\n    }\n\n    // Fungsi untuk menambahkan hasil pemeriksaan pasien\n    function tambahHasilPemeriksaan(\n        uint256 _nik,\n        string memory _kelainanFisik,\n        uint256 _tinggiBadan,\n        uint256 _beratBadan\n    ) public {\n        _hasilPemeriksaan.push(\n            HasilPemeriksaan(\n                _nik,\n                _kelainanFisik,\n                _tinggiBadan,\n                _beratBadan\n            )\n        );\n    }\n\n    // Fungsi untuk mendapatkan jumlah data pasien\n    function getJumlahPasien() public view returns (uint256) {\n        return _identitasPasien.length;\n    }\n\n    // Fungsi untuk mendapatkan data identitas pasien berdasarkan indeks\n    function getIdentitasPasien(uint256 index) public view returns (IdentitasPasien memory) {\n        require(index < _identitasPasien.length, \"Indeks tidak valid\");\n        return _identitasPasien[index];\n    }\n\n    // Fungsi untuk mendapatkan jumlah riwayat medis pasien\n    function getJumlahRiwayatMedis() public view returns (uint256) {\n        return _riwayatMedis.length;\n    }\n\n    // Fungsi untuk mendapatkan riwayat medis pasien berdasarkan indeks\n    function getRiwayatMedis(uint256 index) public view returns (RiwayatMedis memory) {\n        require(index < _riwayatMedis.length, \"Indeks tidak valid\");\n        return _riwayatMedis[index];\n    }\n\n    // Fungsi untuk mendapatkan jumlah hasil anamnesis pasien\n    function getJumlahHasilAnamnesis() public view returns (uint256) {\n        return _hasilAnamnesis.length;\n    }\n\n    // Fungsi untuk mendapatkan hasil anamnesis pasien berdasarkan indeks\n    function getHasilAnamnesis(uint256 index) public view returns (HasilAnamnesis memory) {\n        require(index < _hasilAnamnesis.length, \"Indeks tidak valid\");\n        return _hasilAnamnesis[index];\n    }\n\n    // Fungsi untuk mendapatkan jumlah diagnosa pasien\n    function getJumlahDiagnosa() public view returns (uint256) {\n        return _diagnosa.length;\n    }\n\n    // Fungsi untuk mendapatkan diagnosa pasien berdasarkan indeks\n    function getDiagnosa(uint256 index) public view returns (Diagnosa memory) {\n        require(index < _diagnosa.length, \"Indeks tidak valid\");\n        return _diagnosa[index];\n    }\n\n    // Fungsi untuk mendapatkan jumlah intervensi pasien\n    function getJumlahIntervensi() public view returns (uint256) {\n        return _intervensi.length;\n    }\n\n    // Fungsi untuk mendapatkan intervensi pasien berdasarkan indeks\n    function getIntervensi(uint256 index) public view returns (Intervensi memory) {\n        require(index < _intervensi.length, \"Indeks tidak valid\");\n        return _intervensi[index];\n    }\n\n    // Fungsi untuk mendapatkan jumlah data keuangan pasien\n    function getJumlahKeuangan() public view returns (uint256) {\n        return _keuangan.length;\n    }\n\n    // Fungsi untuk mendapatkan data keuangan pasien berdasarkan indeks\n    function getKeuangan(uint256 index) public view returns (Keuangan memory) {\n        require(index < _keuangan.length, \"Indeks tidak valid\");\n        return _keuangan[index];\n    }\n\n    // Fungsi untuk mendapatkan jumlah hasil pemeriksaan pasien\n    function getJumlahHasilPemeriksaan() public view returns (uint256) {\n        return _hasilPemeriksaan.length;\n    }\n\n    // Fungsi untuk mendapatkan hasil pemeriksaan pasien berdasarkan indeks\n    function getHasilPemeriksaan(uint256 index) public view returns (HasilPemeriksaan memory) {\n        require(index < _hasilPemeriksaan.length, \"Indeks tidak valid\");\n        return _hasilPemeriksaan[index];\n    }\n\n    constructor () {\n        // Add assert statements to the constructor\n        assert(msg.sender != address(0));\n    }\n}\n",
  "sourcePath": "/Applications/projects/nodejs/blockchain/rs-app/admin/contracts/medical_records.sol",
  "compiler": {
    "name": "solc",
    "version": "0.8.11+commit.d7f03943.Emscripten.clang"
  },
  "schemaVersion": "3.4.14",
  "updatedAt": "2023-07-26T22:17:57.276Z",
  "networkType": "ethereum",
  "devdoc": {
    "kind": "dev",
    "methods": {},
    "version": 1
  },
  "userdoc": {
    "kind": "user",
    "methods": {},
    "version": 1
  }
}